:100000000C9408010C9427050C9400050C94300105
:100010000C9430010C9430010C9430010C9430019C
:100020000C9430010C9430010C9430010C9430018C
:100030000C9430010C9430010C9430010C9430017C
:100040000C94B6040C9430010C9492120C946C1223
:100050000C9430010C9430010C9430010C9430015C
:100060000C9430010C9430016368616E67654F62D7
:100070006A5374617475732065786563757465641B
:10008000207769746820207374617475733A003A3C
:100090006500733A005F235D005B535F61727261BC
:1000A000795F6F766572666C6F77207072657665C2
:1000B0006E7465642D2D2D005B535F7365726961ED
:1000C0006C5F74696D656F75742D2D2D2D2D2D2D23
:1000D0002D2D2D2D2D2D2D2D2D2D2D2D2D2D2D2D50
:1000E0002D2D2D2D2D2D2D2D2D2D5F235D005B53C1
:1000F0005F6F6B005B535F6572726F7220696E2079
:100100006D657373616765206E6F636D64315F2326
:100110005D005B535F6572726F7220696E206D6562
:100120007373616765206465636F64652066726FD1
:100130006D20726164696F206E6F6465206920773D
:10014000696C6C206E6F742073656E6420746865D2
:100150002041434B5F235D000000000800020100C6
:100160000003040700000000000000006920776918
:100170006C6C206368616E676520726164696F20D2
:100180006164647265737320746F3A0065725F64B2
:10019000635F6F626A5F6E756D6265725F235D009B
:1001A00065725F61635F6F626A5F6E756D626572D3
:1001B0005F235D0000000000250028002B000000E8
:1001C0000000240027002A0004040404040404049A
:1001D00002020202020203030303030301020408F2
:1001E00010204080010204081020010204081020A1
:1001F000000000002300260029005B535F61726449
:1002000075696E6F5F72656164795F235D00571376
:1002100011241FBECFEFD8E0DEBFCDBF12E0A0E0BB
:10022000B1E0E4E0FDE202C005900D92A83AB1070A
:10023000D9F724E0A8EAB2E001C01D92A33CB207BE
:10024000E1F711E0C8E0D1E004C02197FE010E946F
:100250005A16C730D107C9F70E9498130C9480161C
:100260000C9400000895F89420919D04233021F40B
:100270002091E00321110FC020919D04233011F43F
:10028000789407C0DC01ED91FC910288F389E02DA0
:10029000099580E00895DC01ED91FC910488F589D1
:1002A000E02D61E0099581E0089581E08093C0042C
:1002B0008091BE049091BF04DC01ED91FC91048417
:1002C000F585E02D09951092C0040895CF93DF9332
:1002D0001F92CDB7DEB7DC01ED91FC910480F58172
:1002E000E02D698309956981882361F08091E3039A
:1002F000861711F06F3F29F49091E60381E0911188
:1003000001C080E00F90DF91CF9108950895CF93C1
:10031000DF93EC0161E08A810E94ED1289858CBD3A
:100320008A858DBD8091C004811101C07894DF91D0
:10033000CF910895FC01F8948CB581878DB58287A3
:100340008CB5837F8CBD8CB58F7D8CBD8CB58C7F3F
:100350008CBD8DB58E7F8DBD60E082810C94ED12D9
:100360003FB7F8948091EC039091ED03A091EE03D8
:10037000B091EF0326B5A89B05C02F3F19F0019659
:10038000A11DB11D3FBFBA2FA92F982F8827820F1B
:10039000911DA11DB11DBC01CD0142E0660F771F6B
:1003A000881F991F4A95D1F708952FB7F894609147
:1003B000E8037091E9038091EA039091EB032FBF6A
:1003C00008952F923F924F925F927F928F929F92C9
:1003D000AF92BF92CF92DF92EF92FF920F931F9353
:1003E000CF93DF93EC01B62E4A01722EA02E10E0BF
:1003F000CE2CD12CE12CF12CE881F9810190F081F7
:10040000E02D01E0272DA4016B2DCE0109950E945E
:10041000D5011B012C010E94D501DC01CB01821901
:100420009309A409B5098C159D05AE05BF0538F4DF
:100430006B2DCE010E946601882369F309C01F5FFE
:10044000A116D0F68D858F3110F48F5F8D8780E0F7
:10045000DF91CF911F910F91FF90EF90DF90CF90A0
:10046000BF90AF909F908F907F905F904F903F9004
:100470002F9008952F923F924F925F926F927F92AA
:100480008F929F92AF92BF92CF92DF92EF92FF92A4
:100490000F931F93CF93DF936C01D62F3A01F22E67
:1004A000102FC0E08E2C912CA12CB12CD601ED91F7
:1004B000FC910190F081E02D01E02F2DA3016D2F23
:1004C000C60109950E94D5011B012C010E94D5018E
:1004D000DC01CB0182199309A409B5098815990596
:1004E000AA05BB0538F46D2FC6010E94660188235A
:1004F00069F304C0CF5F1C17C8F680E0DF91CF918D
:100500001F910F91FF90EF90DF90CF90BF90AF9031
:100510009F908F907F906F905F904F903F902F9023
:10052000089580915A03882309F474C080910301CF
:100530008F3609F04FC0809104018B3609F04AC014
:1005400088E1E3E0F1E0DF011D928A95E9F76AE1D5
:1005500073E0CF010E9465168EEE90E00E94DE0CE3
:1005600010929B0380919B038E33E0F480919B0358
:10057000833050F1E0919B03F0E0E65EFC4F808118
:100580000E94A20CE0919B03F0E0E75EFC4F8081AB
:100590008332D1F4E0919B03F0E0E65EFC4F808172
:1005A0008D3591F48AE00E94A20C82EF93E00E94C4
:1005B00019120E94D50160939D0370939E0380934E
:1005C0009F039093A00311C080919B038F5F809342
:1005D0009B03C8CF83E091E00E944F0C8AE00E9409
:1005E000A20C82EF93E00E94191288E1E3E0F1E0AF
:1005F000DF011D928A95E9F76BE971E0CF010E9456
:10060000791680E4EAE1F3E0DF011D928A95E9F7CB
:1006100010925A0308954F925F926F927F92BF9209
:10062000CF92DF92EF92FF920F931F93CF93DF93BE
:1006300010921903109218030E94D501DC01CB011E
:1006400088539F4FAF4FBF4F809314039093150370
:10065000A0931603B09317038DE99FEF90931E01AB
:1006600080931D0190931C0180931B0182E4E2EDB5
:10067000F2E0DF011D928A95E9F711E093E4C92EBB
:1006800093E0D92ECAE1D3E020E4F22E38E1B32E74
:1006900082EF93E00E949B11181619060CF038C1E6
:1006A00010935A03C6010197F1F70091190382EFE5
:1006B00093E00E947911E02FF0E0EE52FD4F80832D
:1006C0000E94D501409014035090150360901603CA
:1006D00070901703461657066806790628F488EBCB
:1006E00090E00E941E0D14C1809119038E3378F1A1
:1006F00089E990E00E94DE0C6091190370E080E0CF
:1007000090E04AE00E94610C85E990E00E941E0D95
:100710001092190382E990E00E941E0D10929B0333
:1007200080919B038E3370F4E0919B03F0E0EE52D6
:10073000FD4F80810E94A20C80919B038F5F80936C
:100740009B03EECF8FE890E00E941E0DA1CF809119
:100750001903823008F4F1C010931803E0911903D3
:10076000F0E0E053FD4F80818B3589F4E09119036F
:10077000F0E0EF52FD4F8081833549F4E091190399
:10078000F0E0EE52FD4F80818F3509F4CDC0E0914D
:100790001903F0E0E053FD4F80818F3509F0CDC0A3
:1007A000E0911903F0E0EF52FD4F8081833209F0B0
:1007B000C4C0E0911903F0E0EE52FD4F80818D3509
:1007C00009F0BBC020911D0130911E012D39BFEFF2
:1007D0003B0709F4B2C08091190390E0029790930F
:1007E0001C0180931B01DE01EF2D1D92EA95E9F7B4
:1007F00010929B03C9018E529D4F20919B032E3373
:10080000E0F4E0919B03F0E020919B03DC01A20F58
:10081000B11D2C91E65EFC4F2083E0919B03F0E03C
:10082000E75EFC4F20812332B9F4E0919B03F0E0B6
:10083000E65EFC4F20812D3579F463E071E08AE1BA
:1008400093E00E942C0D68EA71E083E091E00E9441
:100850007016892B39F040C020919B032F5F2093A5
:100860009B03CBCF6091F003E3E0F1E0DF018B2D40
:100870001D928A95E9F7FE0101900020E9F7319772
:100880009F012A51334086E4E82E03E04AE153E019
:100890008EE994E00E94E101882359F065EB71E054
:1008A00083E091E00E9479168EE994E00E94330182
:1008B00013C06BEB71E083E091E00E9479168EE942
:1008C00094E00E9433010E9491026AE070E080E0AF
:1008D00090E00E941D1302C00E94910282EF93E0FB
:1008E0000E949B1118161906ECF4109219030E942D
:1008F000D501DC01CB0188539F4FAF4FBF4F809391
:10090000140390931503A0931603B0931703C0CE5E
:1009100067EC71E083E091E00E9479160E949102F9
:1009200080E011C081E00FC08091190390E0029730
:1009300090931E0180931D012ACF809119038F5F30
:1009400080931903A5CEDF91CF911F910F91FF9056
:10095000EF90DF90CF90BF907F906F905F904F901F
:1009600008950E940B038093A10308951F920F9294
:100970000FB60F9211242F933F938F939F93AF93B2
:10098000BF938091E8039091E903A091EA03B091AD
:10099000EB033091E70323E0230F2D3720F401967A
:1009A000A11DB11D05C026E8230F0296A11DB11D92
:1009B0002093E7038093E8039093E903A093EA036D
:1009C000B093EB038091EC039091ED03A091EE03C3
:1009D000B091EF030196A11DB11D8093EC0390939C
:1009E000ED03A093EE03B093EF03BF91AF919F91FE
:1009F0008F913F912F910F900FBE0F901F901895E0
:100A00001F920F920FB60F9211242F933F934F9383
:100A10005F936F937F938F939F93AF93BF93EF9366
:100A2000FF93E0916101F09162010995FF91EF91CF
:100A3000BF91AF919F918F917F916F915F914F91F6
:100A40003F912F910F900FBE0F901F9018951F92FE
:100A50000F920FB60F9211242F933F934F935F93F2
:100A60006F937F938F939F93AF93BF93EF93FF9376
:100A7000E0915F01F09160010995FF91EF91BF91C5
:100A8000AF919F918F917F916F915F914F913F9126
:100A90002F910F900FBE0F901F9018958EBD0000E4
:100AA0000DB407FEFDCF8EB50895CF93DF9360722E
:100AB0006093C1042091E603222369F12091C104CF
:100AC000222349F12091E503222329F1EC0180E062
:100AD0000E944E0590E09195819591099F878E87A0
:100AE0002091E50321502093E5034B855C8541155A
:100AF000510589F08417950734F42D852F3118F4AA
:100B00002F5F2D8708C0481759072CF48D8588233F
:100B100011F081508D87DF91CF9108950F931F932E
:100B2000CF93DF9300D0CDB7DEB78C01DC01ED9120
:100B3000FC91008CF18DE02D4A83698309956981D0
:100B4000862F80680E944E054A81842F0E944E05A0
:100B5000D801ED91FC91028CF38DE02DC8010F902E
:100B60000F90DF91CF911F910F9109941F93CF9315
:100B7000DF93EC01162F611102C045E501C04DE580
:100B80006AE5CE010E948E05111102C040E701C046
:100B90004CE76CE5CE01DF91CF911F910C948E054F
:100BA000EF92FF921F93CF93DF931F92CDB7DEB7E3
:100BB0007C01DC01ED91FC91008CF18DE02D6983CD
:100BC00009956981862F8F770E944E0580E00E94EB
:100BD0004E05182FD701ED91FC91028CF38DE02D7D
:100BE000C7010995812F0F90DF91CF911F91FF9041
:100BF000EF9008959F92AF92BF92CF92DF92EF92C3
:100C0000FF920F931F93CF93DF93EC01F62ED42E18
:100C1000952E122FE881F9810488F589E02D61E095
:100C2000099567E2CE010E94D00587FFFACF40E028
:100C300065E2CE010E948E05EE2011F09C2D01C0D0
:100C400090E0190F1E3308F01DE3E881F981008C54
:100C5000F18DE02DCE01099580E80E944E0583E0DC
:100C6000810F0E944E058F2D0E944E058D810E949E
:100C70004E05EE2099F0C11002C080E801C080EA64
:100C80000E944E05CC20B9F0C501B7FE03C0919576
:100C9000819591090E944E0511500DC0002341F02D
:100CA0008B859C85892B11F480E403C080E601C00C
:100CB00080E00E944E05CD2CED2CF92C8E2D8C1948
:100CC000811730F4F70181917F010E944E05F6CF24
:100CD000E881F981028CF38DE02DCE010995E88140
:100CE000F9810488F589E02D64E0CE0109950E9420
:100CF000D5016B017C018B810E94C412892B99F074
:100D0000E881F9810488F589E02D61E0CE01DF9169
:100D1000CF911F910F91FF90EF90DF90CF90BF90F8
:100D2000AF909F9009940E94D501DC01CB018C19F2
:100D30009D09AE09BF09883E9340A105B105D8F2CF
:100D4000DFCFAF92BF92CF92EF920F93A12CB12C35
:100D5000C12C0E94FA050F91EF90CF90BF90AF90F9
:100D60000895CF93DF93EC016887611102C04AE1D7
:100D700001C04FE063E1CE010E948E058885882383
:100D800041F061E1CE010E94D0058F71482F40668D
:100D900002C04F81406861E1CE01DF91CF910C9498
:100DA0008E05CF93DF93EC011092E5031092E303DD
:100DB0001092DF031092E0031092E4031092E60316
:100DC0001092E2031092E10368E20E94D00582FFD4
:100DD0000AC06DE3CE010E94D005482F44606DE348
:100DE000CE010E948E0540E465E2CE010E948E0590
:100DF000E881F9810488F589E02D63E0CE01DF9177
:100E0000CF9109941092C1040C94D106CF93DF9333
:100E100020919D042330C9F42091E003211115C0D5
:100E2000EC0164E20E94D00590E0919581959109D2
:100E30008C349F4F54F4E881F9810488F589E02DC2
:100E400061E0CE01099581E001C080E0DF91CF91A2
:100E500008952F923F924F925F926F927F928F925E
:100E60009F92AF92BF92CF92EF92FF920F931F93F8
:100E7000CF93DF93EC013B01F42E1092E403109129
:100E8000E3038090E1039090E2038091C104CC24BD
:100E9000C394811101C0C12C6DE3CE010E94D00525
:100EA000482F44606DE3CE010E948E050E94D5015B
:100EB0001B012C01CE010E940607882311F110931B
:100EC000E3035401EE24E39400E02F2DA301612FEE
:100ED000CE010E94FA059092E2038092E103DF9135
:100EE000CF911F910F91FF90EF90CF90BF90AF9057
:100EF0009F908F907F906F905F904F903F902F903A
:100F000008950E94D501DC01CB0182199309A4093F
:100F1000B509883E9340A105B10588F6E881F981BD
:100F20000480F581E02DCE010995C4CF4F925F92E8
:100F30006F927F92AF92BF92CF92DF92EF92FF9229
:100F40000F931F93CF93DF93EC015B01F42E10926C
:100F5000E4031091E303C090E103D090E2036DE35A
:100F60000E94D005482F44606DE3CE010E948E059B
:100F70000E94D5012B013C01CE010E940607882367
:100F800011F11093E303E881F9810088F189E02DE4
:100F9000EE24E39400E02F2DA501612FCE010995E9
:100FA000D092E203C092E103DF91CF911F910F91A4
:100FB000FF90EF90DF90CF90BF90AF907F906F90B9
:100FC0005F904F9008950E94D501DC01CB018419F8
:100FD0009509A609B709883E9340A105B10588F691
:100FE000E881F9810480F581E02DCE010995C4CF17
:100FF0008F929F92AF92BF92CF92DF92EF92FF9229
:101000000F931F93CF93DF93EC01162F6A01F22EFB
:101010006DE30E94D005482F44606DE3CE010E942D
:101020008E050E94D5014B015C01CE010E9406078E
:101030008823C1F0E881F9810088F189E02DE12C55
:101040002F2DA601612FCE010995DF91CF911F9120
:101050000F91FF90EF90DF90CF90BF90AF909F9057
:101060008F9008950E94D501DC01CB018819990960
:10107000AA09BB09883E9340A105B105D8F6E881CD
:10108000F9810480F581E02DCE010995CECFCF9373
:10109000DF93EC01603208F06FE16F83888588236D
:1010A00011F066956F8361E1CE010E94D005807ECC
:1010B0009F81482F492B61E1CE01DF91CF910C94A4
:1010C0008E051F93CF93DF9320919D04621709F43F
:1010D0005DC0162FEC016230E9F168F4662309F473
:1010E00040C0613009F052C061E00E94D005837EAB
:1010F000482F44603BC06330B9F0643009F046C00B
:1011000061E00E94D005837E482F4C6061E0CE01F3
:101110000E948E058885882369F1E881F981068817
:10112000F789E02D61E013C061E00E94D005837E65
:10113000482F406161E0CE010E948E05888588239A
:10114000C9F0E881F9810688F789E02D60E0CE01D9
:10115000099510C061E00E94D005837E482F486049
:1011600005C061E00E94D005482F437E61E0CE01BA
:101170000E948E0580919D04811106C067E2CE0118
:101180000E94D00587FFF6CF10939D04DF91CF9189
:101190001F9108951F93CF93DF9320919D046217B1
:1011A000A9F0162FEC010E946108143079F48B85A8
:1011B0009C85892B59F0E881F9810284F385E02D23
:1011C0006D85CE01DF91CF911F910994DF91CF9171
:1011D0001F910895EF92FF921F93CF93DF93EC013D
:1011E00080919D04833001F568E2CE010E94D00514
:1011F00082FD2EC019C08091E5038D3330F4E0915B
:10120000E503F0E0EE55FC4F1082E881F981028C95
:10121000F38DE02DCE010995E881F9810488F589E7
:10122000E02D63E0CE01099564E2CE010E94D00575
:1012300090E0919581959109959587959093E2031A
:101240008093E103DF91CF911F91FF90EF9008957C
:10125000E881F9810488F589E02D61E0CE010995E6
:10126000E881F981008CF18DE02DCE01099580E0B7
:101270000E944E0580E00E944E058093E00380911D
:10128000E0038334D0F48091E0038093E00380E0B6
:101290000E944E058093DF038E81811109C09091D9
:1012A000DF038D81981721F08091DF038F3F39F4A0
:1012B0008091E003833018F017C082E4E6CF1092EB
:1012C000E003E881F981028CF38DE02DCE010995D0
:1012D000E881F9810288F389E02DCE01DF91CF9179
:1012E0001F91FF90EF9009948091E00383508093C9
:1012F000E50380E00E944E058093E30380E00E94B6
:101300004E05982F90789093E603982F90749093C1
:10131000E403E881F9810684F785E02D682FCE018A
:10132000099510E08091E503181708F064CFE12ECD
:10133000F12C80E00E944E05F701EE55FC4F8083B2
:101340001F5FF0CFCF92DF92EF92FF920F931F9328
:10135000CF93DF93EC01F62ED42EC52E122FE88109
:10136000F9810488F589E02D61E0099567E2CE01F5
:101370000E94D00587FFFACF40E065E2CE010E94CF
:101380008E051E3308F01DE3E11004C0002321F098
:1013900000E403C000E801C000E0E881F981008CAE
:1013A000F18DE02DCE01099580E80E944E0583E085
:1013B000810F0E944E058F2D0E944E058D810E9447
:1013C0004E05802F0E944E050D2DED2CFC2C8E2DF0
:1013D000801B811730F4F70181917F010E944E0537
:1013E000F6CFE881F981028CF38DE02DCE010995CD
:1013F000E881F9810488F589E02D64E0CE01099542
:101400000E94D5016B017C018B810E94C412892B43
:1014100081F0E881F9810488F589E02D61E0CE0151
:10142000DF91CF911F910F91FF90EF90DF90CF90C0
:1014300009940E94D501DC01CB018C199D09AE09EC
:10144000BF09883E9340A105B105F0F2E2CFEF92CB
:10145000FF920F931F93CF938EE994E00E94330184
:10146000C82F882309F48AC08DE99FEF90931E014D
:1014700080931D0190931C0180931B0180E4EBE598
:10148000F3E0DF011D928A95E9F76DE99FEF80E0B7
:101490002091E503821790F5282F30E0F901EE55F1
:1014A000FC4F4081F901E55AFC4F4083823020F126
:1014B000A90142505109DA01A55ABC4F7D017C9126
:1014C0007B3561F48901065A1C4FD8017C91733534
:1014D00029F470817F3511F4642F952FD7017C9109
:1014E0007F3551F4D901A65ABC4F2C91233221F4F7
:1014F00020812D3509F4A2C08F5FCACF60931D01F2
:1015000090931E0180911D0190911E018D399F4F76
:1015100021F180911B0190911C018D399F4FE9F0C1
:101520006FE171E08BE593E00E942C0D80911F012B
:101530008F3629F4809120018B3609F488C068EA3F
:1015400071E08FE191E00E947016892B09F47FC051
:1015500082E191E00E941E0D11C064ED71E083E014
:1015600091E00E94791684EF90E00E94DE0C8AE000
:101570000E94A20C82EF93E00E941912C0E0C09377
:101580009C03CC2309F475C068EA71E08FE191E017
:101590000E947016892B09F044C080E2EFE1F1E06F
:1015A000DF011D928A95E9F710929B0380919B03BE
:1015B0008E33A0F5E0919B03F0E0E55AFC4F80816B
:1015C0000E94A20C80919B038230C0F0E0919B03AB
:1015D000F0E0E75AFC4F80818F3581F4E0919B0366
:1015E000F0E0E65AFC4F8081833241F4E0919B03A6
:1015F000F0E0E55AFC4F80818D3531F080919B03FE
:101600008F5F80939B03D2CF0E94D50160939D038F
:1016100070939E0380939F039093A0038AE00E949F
:10162000A20C8EE994E00E94330182EF93E0CF9107
:101630001F910F91FF90EF900C94191260931D0170
:1016400090931E0150931C0140931B015BCF80912E
:10165000E403882309F493CF8091DF038F3F09F4DB
:101660008ECF40E06AEE71E08EE994E00E94290797
:1016700086CFCF911F910F91FF90EF900895109218
:101680009B0380919B038E3320F5E0919B03F0E058
:10169000EA54FD4F80810E94A20C80919B0382300E
:1016A000F8F0E0919B03F0E0EC54FD4F80818F3522
:1016B000B9F4E0919B03F0E0EB54FD4F808183325D
:1016C00079F4E0919B03F0E0EA54FD4F80818D3581
:1016D00039F48AE00E94A20C82EF93E00C94191274
:1016E00080919B038F5F80939B03CBCF1092B502B9
:1016F0001092B4021092B0021092B1021092B20293
:101700001092B30280E38093B0028093B102809381
:10171000B20220915D0130915E01243631056CF0FA
:10172000C90164E670E00E941016605D6093B0022B
:101730009093B5028093B40203C02A303105ECF0D7
:101740008091B4029091B502EAE0F0E0BF010E94FE
:10175000101680E3860F8093B102C901BF010E9479
:1017600010169093B5028093B4028091B4029091C8
:10177000B502805D8093B20203C0205D2093B20267
:101780008CE1E6EBF2E0DF011D928A95E9F761EE6C
:1017900071E0CF010E94791660EB72E086EB92E077
:1017A0000E94651665EE71E086EB92E00E94651678
:1017B00060E571E086EB92E00E94651660ED71E0F5
:1017C00086EB92E00C9465160F931F9382EF93E0E3
:1017D0000E949B11181619062CF40E940B0380938B
:1017E000A10325C00E94D50100919D0310919E0385
:1017F00020919F033091A003DC01CB01801B910B52
:10180000A20BB30B813E9E42A105B10580F00E9460
:10181000D50160939D0370939E0380939F039093E3
:10182000A0030E94760B1F910F910C943F0B1F9108
:101830000F910895EF92FF920F931F93CF93DF9331
:10184000D82F8B0188E690E00E94DE0CC8010E9430
:10185000AD0CD430E1F0C1E00115110509F0C0E094
:10186000ED2E0D2E000CFF086C2F80E00E94ED1273
:10187000D11107C00093AF026C2F70E085E00E9489
:101880001A0CF701E855FD4F008381E001C080E0AC
:10189000DF91CF911F910F91FF90EF9008950097E6
:1018A00069F0FC0101900020E9F73197AF01481B76
:1018B000590BBC0182EF93E00C944E1180E090E054
:1018C00008958F929F92AF92BF920F931F93CF93E1
:1018D000DF93CDB7DEB7A1970FB6F894DEBF0FBE8A
:1018E000CDBF19A2423008F44AE08E010F5D1F4FB0
:1018F000842E912CA12CB12CA50194010E942416B8
:10190000E62FB901CA0101501109EA3014F4E05D73
:1019100001C0E95CD801EC93232B242B252B61F724
:10192000C8010E944F0CA1960FB6F894DEBF0FBEFF
:10193000CDBFDF91CF911F910F91BF90AF909F903E
:101940008F900895E091F203F091F3030190F081FC
:10195000E02D682F82EF93E00994CF92DF92EF920F
:10196000FF92CF93DF936C01990FEE08FF08F7FE0B
:1019700012C08DE20E94A20CEC0166277727CB01F2
:101980006C197D098E099F094AE00E94610C7C0157
:10199000EC0EFD1E06C04AE0C701B6010E94610CB4
:1019A0007C0188EE91E00E944F0C8E0D9F1DDF910F
:1019B000CF91FF90EF90DF90CF9008950F931F93FA
:1019C000CF93DF938C01C0E0D0E0F801EC0FFD1F56
:1019D0006491662371F0E091F203F091F3030190BA
:1019E000F081E02D82EF93E00995892B11F021968B
:1019F000ECCFCE01DF91CF911F910F91089590E030
:101A0000FC01E452FE4F2491FC01E853FE4F849107
:101A1000882399F090E0880F991FFC01E254FE4F53
:101A2000A591B491FC01EC54FE4F859194918FB730
:101A3000F894EC91E22BEC938FBF0895CF93DF9352
:101A40000E94DE0CEC0188EE91E00E944F0C8C0F9E
:101A50009D1FDF91CF910895EF92FF920F931F93F7
:101A6000CF93DF93EC018B01DB011D921C926BEE97
:101A700071E0C8010E94791688818B3509F007C48E
:101A80008981833509F003C48A818F3509F0FFC34A
:101A900067EF71E0C8010E9479165E81509393044C
:101AA0004F81409394042B81022E000C330B205362
:101AB000310984E6829FB001839F700D11242C812F
:101AC000022E000C330B20533109EAE0E29FC001E3
:101AD000E39F900D1124860F971F2D81022E000C7D
:101AE000330B20533109820F931F9093F10380939E
:101AF000F00320915D0130915E018217930719F088
:101B000068EA71E006C380919304873621F48091DE
:101B10009404813699F080919304853721F4809163
:101B200094048C3659F0809193048F3651F480914F
:101B30009404843731F481E08093BD046FE172E056
:101B4000E8C280919304843621F48091940487370D
:101B500059F080919304813609F045C08091940436
:101B6000873709F040C04AC08C85082E000C990BBD
:101B7000C0979093970480939604809196049091D7
:101B8000970402970CF072C02885022E000C330BCC
:101B9000205331098AE0829FA001839F500D1124B8
:101BA0008985082E000C990BC097840F951F909380
:101BB00099048093980480919804909199040E94CC
:101BC000FF0C609196047091970480919804909115
:101BD000990406C0C038D1050CF0B5C060E08E2D68
:101BE0000E94ED12ABCF80919304833709F021C19D
:101BF00080919404823709F01CC1A7C02A85022E67
:101C0000000C330B2053310984E6829FB001839F7F
:101C1000700D11242B85022E000C330B205331093B
:101C20004AE0429FC001439F900D1124860F971FE9
:101C30002C85022E000C330B20533109820F931F89
:101C400090939704809396048091960490919704C2
:101C500097FD08C080919604909197048F3F91055D
:101C600041F03CF010929704109296046EE072E0FE
:101C700050C22885022E000C330B20533109429F9D
:101C8000B001439F700D11248985082E000C990B1B
:101C9000C097860F971F9093990480939804C091E2
:101CA0009604D0919704E0909804F09099048E2DBA
:101CB0000E94FF0C209709F491CFCF3FD10509F482
:101CC00042C0F701FF27E85AFE4FE491E33009F1E3
:101CD00050F4E130C9F0E23009F07CCF84B5806285
:101CE00084BDC8BD2BCFE730F1F0E83021F1E430FE
:101CF00009F070CF80918000806280938000D09343
:101D00008B00C0938A001ACF84B5806884BDC7BD9C
:101D100015CF80918000806880938000D0938900E7
:101D2000C09388000BCF8091B00080688093B00092
:101D3000C093B30003CF8091B00080628093B00065
:101D4000C093B400FBCE61E04ACF8C85082E000C16
:101D5000990BC09790939704809396048091960472
:101D60009091970402970CF081CF2885022E000CE9
:101D7000330B205331094AE0429FB001439F700D5D
:101D800011248985082E000C990BC097860F971F88
:101D900090939904809398042A85022E000C330BAB
:101DA00020533109429FB001439F700D11248B8550
:101DB000082E000C990BC097860F971F90939B04D9
:101DC00080939A0480919804909199040E94FF0C4A
:101DD00080919A0490919B040E94FF0C209196049C
:101DE00030919704809198049091990461E0232B9D
:101DF00009F060E00E94ED126091960470919704E2
:101E000080919A0490919B040E94ED1266E970E023
:101E100080E090E00E941D138091980490919904B5
:101E200060E00E94ED1280919A0490919B0460E022
:101E3000D7CE809193048136C9F58091940483367E
:101E4000A9F52A85022E000C330B2053310984E6B4
:101E5000829FA001839F500D11242B85022E000C20
:101E6000330B205331096AE0629FC001639F900DDC
:101E70001124840F951F2C85022E000C330B205348
:101E80003109820F931F9093970480939604809159
:101E900096049091970497FD12C0809196049091BA
:101EA00097048F3F910509F054F413C08091930477
:101EB000843681F580919404833661F536C01092A2
:101EC000970410929604F8011182108268E972E07A
:101ED00020C1898520ED280F8885880F8056982F8E
:101EE000990F990F890F820F80939C046FE172E024
:101EF000C8010E94791680919C04883008F4C7C1FB
:101F000080EA91E00E941E0DD8011D921C9262E2AF
:101F100072E0FFC080919304843609F076C080910E
:101F200094048F3609F071C041C08A85082E000CD8
:101F3000990BC09790939704809396048091960490
:101F40009091970402973CF0109297041092960497
:101F500066E372E0DEC0898520ED280F8885880F52
:101F60008056982F990F990F890F820F80939C04A8
:101F70006FE172E0C8010E94791680919C0488305C
:101F800038F08CE891E00E941E0D66E472E0C1C05A
:101F9000609196047091970480919C04DF91CF9199
:101FA0001F910F91FF90EF900C941A0C8A85082EC8
:101FB000000C990BC097909397048093960480919E
:101FC00096049091970402973CF010929704109217
:101FD00096046AE572E09DC0898520ED280F88850A
:101FE000880F8056982F990F990F890F820F809331
:101FF0009C046FE172E0C8010E94791680919C04F4
:10200000883030F26AE672E084C0809193048337AE
:1020100009F06EC080919404813609F069C028856A
:10202000022E000C330B2053310984E6829FA0015D
:10203000839F500D11242985022E000C330B205351
:1020400031096AE0629FC001639F900D1124840FE3
:10205000951F2A85022E000C330B20533109820F65
:10206000931F90939704809396048DE0E0EBF4E047
:10207000DF011D928A95E9F78B858093B0048C85EA
:102080008093B1048D858093B2048E858093B304D0
:102090008F858093B40488898093B504898980935F
:1020A000B6048A898093B7048B898093B8048C899D
:1020B0008093B9048D898093BA048E898093BB0480
:1020C00060E571E0CF010E947016892B19F06EE770
:1020D00072E01FC0809196049091970497FD13C001
:1020E00080919604909197048F3F910564F41AC0F3
:1020F00080919304833609F0B1C0809194048536B1
:1021000009F0ACC02CC0109297041092960461E1C3
:1021100072E0C801DF91CF911F910F91FF90EF9076
:102120000C947916F894809196049091970490936A
:102130005E0180935D016FE172E0C8010E94791633
:102140008CE691E00E94DE0C80915D0190915E0131
:102150000E94AD0C81E08093AF04789498C08DE02C
:10216000E0EBF4E0DF011D928A95E9F78885809322
:10217000B00489858093B1048A858093B2048B85ED
:102180008093B3048C858093B4048D858093B504CB
:102190008E858093B6048F858093B7048889809359
:1021A000B80489898093B9048A898093BA048B8999
:1021B0008093BB0460E571E0CF010E947016892B0B
:1021C00019F066E872E0A5CF81E1EFE3F1E0DF010D
:1021D0001D928A95E9F78C8980933F018D898093C0
:1021E00040018E89809341018F8980934201888DBF
:1021F00080934301898D809344018A8D80934501AA
:102200008B8D809346018C8D809347018D8D8093BB
:1022100048018E8D809349018F8D80934A0188A15A
:1022200080934B0189A180934C018AA180934D0139
:102230008BA180934E018CA180934F01F8946FE1A4
:1022400072E0C8010E94791680915D0190915E0153
:102250000E94AD0C81E08093AF0419C0809193047B
:102260008236A9F480919404853689F4523661F45B
:10227000453651F48885873639F48985893621F4C5
:102280008A858E3609F45ACC60E972E042CFDF913C
:10229000CF911F910F91FF90EF900895CF92DF9211
:1022A000EF92FF920F931F93CF93DF936C017A010C
:1022B0008B01C0E0D0E0CE15DF0589F0D8016D912B
:1022C0008D01D601ED91FC910190F081E02DC601C8
:1022D0000995892B11F47E0102C02196ECCFC7012C
:1022E000DF91CF911F910F91FF90EF90DF90CF90F2
:1022F0000895FC01918D828D981761F0828DDF0128
:10230000A80FB11D5D968C91928D9F5F9F73928FE8
:1023100090E008958FEF9FEF0895FC01918D828DDD
:10232000981731F0828DE80FF11D858D90E00895AA
:102330008FEF9FEF0895FC01918D228D892F90E002
:10234000805C9F4F821B91098F739927089582EFBC
:1023500093E00E949B1121E0892B09F420E0822F59
:102360000895FC01848DDF01A80FB11DA35ABF4F52
:102370002C91848D90E001968F739927848FA68984
:10238000B7892C93A089B1898C9180648C93938DAB
:10239000848D981306C00288F389E02D80818F7D9B
:1023A00080830895EF92FF920F931F93CF93DF9353
:1023B000EC0181E0888F9B8D8C8D981305C0E88996
:1023C000F989808185FD24C0F62E0B8D10E00F5F0A
:1023D0001F4F0F731127E02E8C8DE8120CC00FB623
:1023E00007FCFACFE889F989808185FFF5CFCE0116
:1023F0000E94B111F1CF8B8DFE01E80FF11DE35A60
:10240000FF4FF0820B8FEA89FB898081806207C0D1
:10241000EE89FF896083E889F989808180648083FF
:1024200081E090E0DF91CF911F910F91FF90EF90AD
:102430000895CF93DF93EC01888D8823C9F0EA8952
:10244000FB89808185FD05C0A889B9898C9186FDAD
:102450000FC00FB607FCF5CF808185FFF2CFA889AA
:10246000B9898C9185FFEDCFCE010E94B111E7CFE4
:10247000DF91CF9108950E94A71181110C94B104AE
:102480000895833081F028F4813099F08230A1F0F2
:1024900008958730A9F08830B9F08430D1F4809164
:1024A00080008F7D03C0809180008F7780938000B3
:1024B000089584B58F7702C084B58F7D84BD08955B
:1024C0008091B0008F7703C08091B0008F7D8093A2
:1024D000B00008950E9460161F920F920FB60F92DF
:1024E00011242F933F934F935F936F937F938F9319
:1024F0009F93AF93BF93EF93FF9382EF93E00E947C
:10250000B111FF91EF91BF91AF919F918F917F9109
:102510006F915F914F913F912F910F900FBE0F9050
:102520001F9018951F920F920FB60F9211242F93A0
:102530008F939F93EF93FF93E0910204F091030434
:102540008081E0910804F091090482FD12C090811D
:1025500080910B048F5F8F7320910C04821751F0D0
:10256000E0910B04F0E0EE50FC4F958F80930B044C
:1025700001C08081FF91EF919F918F912F910F90DA
:102580000FBE0F901F901895CF93DF93282F30E048
:10259000F901E85AFE4F8491F901E452FE4FD491BB
:1025A000F901E853FE4FC491CC2391F081110E94B0
:1025B0004112EC2FF0E0EE0FFF1FE051FE4FA5910E
:1025C000B491EC91ED2381E090E021F480E002C031
:1025D00080E090E0DF91CF9108951F93CF93DF9338
:1025E000282F30E0F901E85AFE4F8491F901E452B6
:1025F000FE4FD491F901E853FE4FC491CC23C9F0AA
:10260000162F81110E944112EC2FF0E0EE0FFF1FF8
:10261000EC54FE4FA591B4918FB7F894111105C0F9
:102620009C91ED2FE095E92302C0EC91ED2BEC930A
:102630008FBFDF91CF911F9108958F929F92AF929C
:10264000BF92CF92DF92EF92FF926B017C010E94CA
:10265000B0014B015C01C114D104E104F104F1F0BB
:102660000E94B001DC01CB0188199909AA09BB09B4
:10267000883E9340A105B10570F321E0C21AD1084C
:10268000E108F10888EE880E83E0981EA11CB11CB9
:10269000C114D104E104F10419F7DDCFFF90EF90EC
:1026A000DF90CF90BF90AF909F908F900895E2EF12
:1026B000F3E01382128288EE93E0A0E0B0E084831E
:1026C0009583A683B7838FE691E09183808385EC21
:1026D00090E09587848784EC90E09787868780ECEC
:1026E00090E0918B808B81EC90E0938B828B82ECDD
:1026F00090E0958B848B86EC90E0978B868B118E87
:10270000128E138E148EEEE9F4E08AE0828382E06A
:102710008383148281E080939D0416828FE18783F6
:1027200010868FE791E09183808310929C04089536
:10273000CF93DF93CDB7DEB7AE970FB6F894DEBF79
:102740000FBECDBF789484B5826084BD84B58160AE
:1027500084BD85B5826085BD85B5816085BD80916C
:102760006E00816080936E001092810080918100E4
:1027700082608093810080918100816080938100DC
:10278000809180008160809380008091B10084609E
:102790008093B1008091B00081608093B0008091FF
:1027A0007A00846080937A0080917A0082608093BE
:1027B0007A0080917A00816080937A0080917A001B
:1027C000806880937A001092C100E0910204F09139
:1027D000030482E08083E091FE03F091FF03108206
:1027E000E0910004F091010430E1308310920A047A
:1027F000E0910604F091070426E02083E0910404B0
:10280000F0910504908190619083E0910404F0912F
:102810000504908198609083E0910404F091050490
:10282000908190689083E0910404F0910504908178
:102830009F7D90837894F0905D011092AA0410928D
:10284000A9041092AD041092AC041092C1049FE14F
:102850009093AB049EE28E010F5F1F4FF801492F4A
:1028600011924A95E9F741E0498354E05A838B83FA
:1028700043E04D838E835F8380E4888755E05987EA
:102880004A872B8723E32C8747E04D8728E02F8753
:1028900029E0298B29E12B8B22E42C8B55E25D8BDF
:1028A0008E8B56E25F8B488F48E2498F3A8F39E230
:1028B0003B8F3CED3C8F9D8F98E89E8F9FE29F8FD2
:1028C0009DE298A390E399A337E33BA330E93CA3AF
:1028D00038E33DA32EA32CE32FA32FE828A72DE355
:1028E00029A722E12AA72FE62BA79CA79FEF9DA748
:1028F0009CE69E87888B84E68AA361E08091A00491
:102900000E94ED128091A0040E94FF0CEFB6F89493
:102910008091C204811124C0E2EDF1E08491E6EEE1
:10292000F1E09491E82FF0E0EE0FFF1FE254FE4F2C
:10293000A591B491EC91E92321F461E08AE00E9431
:10294000ED128AE00E94FF0C8CB580618CBD8CB5C5
:1029500080648CBD8DE00E94FF0C8BE00E94FF0C18
:102960008091C2048F5F8093C204EFBE0E94D501A4
:102970004B015C014AEA6FE28EE994E00E948E0509
:102980006FE28EE994E00E94D0058A3A61F00E94DD
:10299000D501DC01CB0188199909AA09BB09C297A5
:1029A000A105B10538F30E94D5014B015C0145E555
:1029B0006FE28EE994E00E948E056FE28EE994E06A
:1029C0000E94D005853561F00E94D501DC01CB0164
:1029D00088199909AA09BB09C297A105B10538F35D
:1029E000E12CF801EE0DF11DEE0DF11D60816F3F40
:1029F00039F041818EE994E00E948E05E394F1CF95
:102A0000E0919E04F0919F040488F589E02D61E037
:102A10008EE994E009956DE38EE994E00E94D0057B
:102A2000482F4E7F6DE38EE994E00E948E05609101
:102A3000A6048EE994E00E94B106E0919E04F09114
:102A40009F040488F589E02D61E08EE994E0099502
:102A50000E94D5014B015C0167E28EE994E00E947F
:102A6000D00587FD0CC00E94D501DC01CB0188197F
:102A70009909AA09BB09C297A105B10568F30E948B
:102A8000D501DC01CB0188199909AA09BB09C297B4
:102A9000A105B10538F51092C0048091A2048230DE
:102AA000C8F4E82FF0E0EE0FFF1FE15AFE4F25E5D6
:102AB00031E031832083813039F080916900836077
:102AC00080936900E89A06C0809169008C608093C9
:102AD0006900E99A8EE994E09093BF048093BE0464
:102AE000F092A30461E08EE994E00E94B1066FE1E8
:102AF0008EE994E00E944708E0919E04F0919F04C3
:102B00000488F589E02D61E08EE994E009958EE96D
:102B100094E00E949A018EEB0E944E050FE311E0B3
:102B200080E1F82EF00EF80181918F010E944E0590
:102B3000F012F9CF8EE994E00E9487016DE38EE9EF
:102B400094E00E94D005482F41606DE38EE994E047
:102B50000E948E0588ED9FEF9093AA048093A904AC
:102B60000BE410E0C8010197F1F782EF93E00E94B7
:102B70009B110397BCF382EF93E00E9479118B3590
:102B8000910581F782EF93E00E94791183359105D9
:102B900049F782EF93E00E9479118F35910511F783
:102BA0008AEF91E00E941E0D82EF93E00E941912BD
:102BB0000E94760B0E943F0B1AE009E082EF93E03F
:102BC0000E949B111816190634F5909164018091AA
:102BD0006301891750F4923018F092509093640179
:102BE0000E94270A0E94E40B09C0823018F081502D
:102BF000809363010E94E40B0E94270A8091640184
:102C0000811102C00093640180916301811105C0AC
:102C10001093630102C00E94270A0E943B12CECF8C
:102C200097FB072E16F4009407D077FD09D00E9479
:102C3000461607FC05D03EF4909581959F4F089568
:102C4000709561957F4F0895A1E21A2EAA1BBB1BB8
:102C5000FD010DC0AA1FBB1FEE1FFF1FA217B30768
:102C6000E407F50720F0A21BB30BE40BF50B661F7E
:102C7000771F881F991F1A9469F760957095809542
:102C800090959B01AC01BD01CF010895AA1BBB1B10
:102C900051E107C0AA1FBB1FA617B70710F0A61B5C
:102CA000B70B881F991F5A95A9F780959095BC017D
:102CB000CD010895EE0FFF1F0590F491E02D0994CA
:102CC00081E090E0F8940C948016FB01DC010D90FB
:102CD0000020E9F7119701900D920020E1F7089587
:102CE000FB01DC018D91019080190110D9F3990B42
:102CF0000895FB01DC0101900D920020E1F7089599
:042D0000F894FFCF75
:102D040030FE00657230305F235D0000000000007B
:102D140000000000000000000000009DFF9DFF6512
:102D24007230305F235D00000000000000000000EE
:102D34000000000000000000000000000000006F20
:102D44006E6F73456E63727970744B6579303100C0
:102D540050726F6D696E695330303031000100324A
:102D6400013201090A0000C304800000000000D2FF
:102D7400114E119B1179118D11191200000000F8E8
:102D840007E10133012907B1064708EA085505A1FF
:102D9400060207CA08B6059A0187015B535F6E6F86
:102DA400636D64325F235D005B535F72656D6F74A6
:102DB400655F235D006F6B5F235D005B535F65722E
:102DC4007478315F235D005B535F6E6F636D6430B5
:102DD4005F235D005B535F6E6F636D64315F235DE2
:102DE400005B535F007379000D0A005B535F6572EB
:102DF4007230315F235D005B535F65725F636D64A6
:102E040052786E6F74666F756E645F235D005B53FA
:102E14005F6572305F7374617475735F235D006FF7
:102E24006B0065725F61635F6F626A5F6E756D628E
:102E340065725F235D0065725F64635F73746174C0
:102E440075735F235D0065725F64635F6F626A5FC1
:102E54006E756D6265725F235D0065725F646F5F9E
:102E64007374617475735F235D0065725F646F5F73
:102E74006F626A5F6E756D6265725F235D00657275
:102E8400315F736E3A006572325F736E5F235D006B
:102E94006572725F6265670065725F61635F737418
:082EA400617475735F235D008A
:00000001FF
