:100000000C9435000C945D000C945D000C945D0024
:100010000C945D000C945D000C945D000C945D00EC
:100020000C945D000C945D000C945D000C945D00DC
:100030000C945D000C945D000C945D000C945D00CC
:100040000C94AB010C945D000C941B020C94F50114
:100050000C945D000C945D000C945D000C945D00AC
:100060000C945D000C945D003B0311241FBECFEF88
:10007000D8E0DEBFCDBF11E0A0E0B1E0EEE2F7E0F6
:1000800002C005900D92A235B107D9F721E0A2E593
:10009000B1E001C01D92A83FB207E1F710E0C5E34F
:1000A000D0E004C02197FE010E948A03C433D10727
:1000B000C9F70E944D020C9495030C940000CF9256
:1000C000DF92EF92FF920F931F93CF93DF936C0118
:1000D0007A018B01C0E0D0E0CE15DF0589F0D801B0
:1000E0006D918D01D601ED91FC910190F081E02D93
:1000F000C6010995892B11F47E0102C02196ECCF2F
:10010000C701DF91CF911F910F91FF90EF90DF908A
:10011000CF900895FC01918D828D981761F0828DAA
:10012000DF01A80FB11D5D968C91928D9F5F9F732B
:10013000928F90E008958FEF9FEF0895FC01918DCD
:10014000828D981731F0828DE80FF11D858D90E03A
:1001500008958FEF9FEF0895FC01918D228D892FD7
:1001600090E0805C9F4F821B91098F7399270895BF
:100170008BE591E00E94AC0021E0892B09F420E09E
:10018000822F0895FC01848DDF01A80FB11DA35AB1
:10019000BF4F2C91848D90E001968F739927848FA7
:1001A000A689B7892C93A089B1898C9180648C939E
:1001B000938D848D981306C00288F389E02D808189
:1001C0008F7D80830895EF92FF920F931F93CF93BB
:1001D000DF93EC0181E0888F9B8D8C8D981305C097
:1001E000E889F989808185FD24C0F62E0B8D10E009
:1001F0000F5F1F4F0F731127E02E8C8DE8120CC07C
:100200000FB607FCFACFE889F989808185FFF5CF21
:10021000CE010E94C200F1CF8B8DFE01E80FF11DCF
:10022000E35AFF4FF0820B8FEA89FB89808180625D
:1002300007C0EE89FF896083E889F989808180643D
:10024000808381E090E0DF91CF911F910F91FF902B
:10025000EF900895CF93DF93EC01888D8823C9F048
:10026000EA89FB89808185FD05C0A889B9898C91BF
:1002700086FD0FC00FB607FCF5CF808185FFF2CF5A
:10028000A889B9898C9185FFEDCFCE010E94C2006B
:10029000E7CFDF91CF91089580E090E0892B29F09E
:1002A0000E94B80081110C9400000895009769F035
:1002B000FC0101900020E9F73197AF01481B590B71
:1002C000BC018BE591E00C945F0080E090E0089524
:1002D0008F929F92AF92BF920F931F93CF93DF9312
:1002E000CDB7DEB7A1970FB6F894DEBF0FBECDBF76
:1002F00019A2423008F44AE08E010F5D1F4F842E90
:10030000912CA12CB12CA50194010E946803E62F29
:10031000B901CA0101501109EA3014F4E05D01C0CD
:10032000E95CD801EC93232B242B252B61F7C80122
:100330000E945601A1960FB6F894DEBF0FBECDBF46
:10034000DF91CF911F910F91BF90AF909F908F90B1
:1003500008950E9490031F920F920FB60F921124DE
:100360002F933F938F939F93AF93BF9380915701A8
:1003700090915801A0915901B0915A0130915601C4
:1003800023E0230F2D3720F40196A11DB11D05C0D8
:1003900026E8230F0296A11DB11D209356018093DC
:1003A000570190935801A0935901B0935A0180913D
:1003B000520190915301A0915401B09155010196C1
:1003C000A11DB11D8093520190935301A09354013C
:1003D000B0935501BF91AF919F918F913F912F9114
:1003E0000F900FBE0F901F9018951F920F920FB68F
:1003F0000F9211242F933F934F935F936F937F93AB
:100400008F939F93AF93BF93EF93FF938BE591E00F
:100410000E94C200FF91EF91BF91AF919F918F9188
:100420007F916F915F914F913F912F910F900FBEF0
:100430000F901F9018951F920F920FB60F921124D4
:100440002F938F939F93EF93FF93E0916B01F09124
:100450006C018081E0917101F091720182FD12C006
:100460009081809174018F5F8F7320917501821745
:1004700051F0E0917401F0E0E55AFE4F958F8093C2
:10048000740101C08081FF91EF919F918F912F9115
:100490000F900FBE0F901F901895789484B58260CE
:1004A00084BD84B5816084BD85B5826085BD85B518
:1004B000816085BD80916E00816080936E00109296
:1004C0008100809181008260809381008091810011
:1004D00081608093810080918000816080938000A2
:1004E0008091B10084608093B1008091B000816000
:1004F0008093B00080917A00846080937A0080912C
:100500007A00826080937A0080917A008160809383
:100510007A0080917A00806880937A001092C100FE
:10052000E0916B01F0916C0182E08083E0916701C2
:10053000F09168011082E0916901F0916A018FECFD
:10054000808310927301E0916F01F091700186E059
:100550008083E0916D01F0916E01808180618083E4
:10056000E0916D01F0916E01808188608083E0915F
:100570006D01F0916E01808180688083E0916D0152
:10058000F0916E0180818F7D808382E191E00E94F5
:1005900056018EE291E00E945601609100018BE5C8
:1005A00091E00E94E30081E391E00E945601C09037
:1005B0000001D09001010D2C000CEE08FF08F7FEA1
:1005C00014C0E0915B01F0915C010190F081E02D9D
:1005D0006DE28BE591E0099566277727CB016C19D1
:1005E0007D098E099F094AE003C04AE0C701B601B0
:1005F0000E94680189E391E00E9456016091000128
:1006000070910101072E000C880B990B40E10E94AC
:10061000680181E491E00E945601609100017091AF
:100620000101072E000C880B990B48E00E9468011D
:1006300089E491E00E9456016091000170910101EE
:10064000072E000C880B990B42E00E9468018EE295
:1006500091E00E94560180910001909101018E3736
:10066000910509F4FFCF0196909301018093000159
:100670000E944C0192CFEBE5F1E01382128288EEEA
:1006800093E0A0E0B0E084839583A683B78386E0FF
:1006900091E09183808385EC90E09587848784EC5A
:1006A00090E09787868780EC90E0918B808B81EC3F
:1006B00090E0938B828B82EC90E0958B848B86EC20
:1006C00090E0978B868B118E128E138E148E089568
:1006D000A1E21A2EAA1BBB1BFD010DC0AA1FBB1F46
:1006E000EE1FFF1FA217B307E407F50720F0A21BB8
:1006F000B30BE40BF50B661F771F881F991F1A9425
:1007000069F760957095809590959B01AC01BD014E
:10071000CF010895EE0FFF1F0590F491E02D09948D
:0E07200081E090E0F8940C949503F894FFCFDC
:10072E00210000000000E3005F00AC008A009E0084
:10073E002A014153434949205461626C65207E2051
:10074E00436861726163746572204D6170000D0AB9
:10075E00002C206465633A20002C206865783A20CE
:10076E00002C206F63743A20002C2062696E3A20B0
:02077E00000079
:00000001FF
