:100000000C9435000C945D000C945D000C945D0024
:100010000C945D000C945D000C945D000C945D00EC
:100020000C945D000C945D000C945D000C945D00DC
:100030000C945D000C945D000C945D000C945D00CC
:100040000C94F3030C945D000C945F010C94A201DA
:100050000C945D000C945D000C945D000C945D00AC
:100060000C945D000C945D00600211241FBECFEF64
:10007000D8E0DEBFCDBF11E0A0E0B1E0E4E4F9E0FC
:1000800002C005900D92AE34B107D9F722E0AEE47C
:10009000B1E001C01D92A130B207E1F710E0CAE65D
:1000A000D0E004C02297FE010E949C04C836D1070C
:1000B000C9F70E94E6030C94A0040C94000040E8E9
:1000C00055E260E070E08EE491E00E94DD018EE494
:1000D00091E00E945E028823D1F362E071E08EE439
:1000E00091E00C941103E0914E01F0914F010190C9
:1000F000F081E02D609100018EE491E009956EE1C0
:1001000071E08EE491E00E94F40260910001709130
:1001100001014AE050E08EE491E00E94C60366E2ED
:1001200071E08EE491E00E94F40260910001709110
:10013000010140E150E08EE491E00E94C6036EE2CE
:1001400071E08EE491E00E94F402609100017091F0
:10015000010148E050E08EE491E00E94C60366E3AE
:1001600071E08EE491E00E94F402609100017091D0
:10017000010142E050E08EE491E00E94CE038091C4
:100180000001909101018E37910509F4FFCF01968E
:1001900090930101809300010895FC012485358529
:1001A000F901E05CFF4F808191813296208131819D
:1001B000821B930B8F7399270895FC018485958585
:1001C000FC01E05CFF4F40815181329620813181FA
:1001D0004217530741F00190F081E02DE80FF91F1D
:1001E000808190E008958FEF9FEF0895FC01848552
:1001F0009585FC01E05CFF4F408151813296208162
:1002000031814217530779F0A081B181A80FB91F3E
:100210008C91208131812F5F3F4F2F7333273183A2
:10022000208390E008958FEF9FEF0895FC0181A156
:10023000882329F0A489B5898C9186FFFBCF11A270
:100240000895CF93DF93FC0126853785D901A05C03
:10025000BF4F8D919C91119701968F739927E9015A
:10026000CE5BDF4F4881598184179507D9F30D90F4
:10027000BC91A02DA20FB31F6C93A685B785A05C7F
:10028000BF4F11969C938E93A689B7892C9181E0DC
:1002900090E0078C02C0880F991F0A94E2F7282B80
:1002A0002C9381E081A30488F589E02D808180640E
:1002B000808381E090E0DF91CF91089508951F92AF
:1002C0000F920FB60F9211242F933F934F938F935A
:1002D0009F93EF93FF938091C00082FD1CC04091DB
:1002E000C6008091F4019091F50101968F739927D2
:1002F0002091F6013091F7018217930771F0E09198
:10030000F401F091F501EC54FE4F40839093F50118
:100310008093F40102C08091C600FF91EF919F91FC
:100320008F914F913F912F910F900FBE0F901F9083
:1003300018958EE491E00E94CD00892B11F00C9469
:100340005E0108951F920F920FB60F9211242F9302
:100350003F938F939F93EF93FF932091B001309140
:10036000B1018091B2019091B3012817390731F49E
:100370008091C1008F7D8093C10014C0E091B201D3
:10038000F091B301E059FE4F20818091B20190912C
:10039000B30101968F7399279093B3018093B201B3
:1003A0002093C600FF91EF919F918F913F912F91E4
:1003B0000F900FBE0F901F901895CF92DF92EF9283
:1003C000FF92CF93DF93EC016A017B01411581EE2F
:1003D000580761057105F9F0EC89FD8981E090E02D
:1003E00008A002C0880F991F0A94E2F7808360E09A
:1003F00079E08DE390E0A70196010E9478042150F6
:100400003109410951095695479537952795211589
:1004100080E1380798F0EC89FD89108260E874E883
:100420008EE190E0A70196010E94780421503109E5
:10043000410951095695479537952795E889F989D6
:100440003083EA89FB89208319A2EE89FF894081E4
:1004500081E090E09C010C8C02C0220F331F0A94B3
:10046000E2F7422B4083EE89FF8940819C010D8C8D
:1004700002C0220F331F0A94E2F7422B4083EE8919
:10048000FF8940819C010E8C02C0220F331F0A9409
:10049000E2F7422B4083EE89FF8920810F8C02C056
:1004A000880F991F0A94E2F7809582238083DF9159
:1004B000CF91FF90EF90DF90CF90089581E0089565
:1004C000109251011092500188EE93E0A0E0B0E04C
:1004D0008093520190935301A0935401B09355011E
:1004E00082E491E090934F0180934E0184EB91E080
:1004F00090935B0180935A0180E791E090935D01B6
:1005000080935C0185EC90E090935F0180935E01A5
:1005100084EC90E0909361018093600180EC90E026
:10052000909363018093620181EC90E09093650168
:100530008093640182EC90E0909367018093660160
:1005400086EC90E0909369018093680184E0809349
:100550006A0183E080936B0187E080936C0185E002
:1005600080936D0181E080936E010895CF92DF92B8
:10057000EF92FF920F931F93CF93DF936C017A0159
:10058000EB01E60EF71E00E010E0CE15DF0561F08E
:100590006991D601ED91FC910190F081E02DC601A9
:1005A0000995080F191FF1CFC801DF91CF911F9155
:1005B0000F91FF90EF90DF90CF9008956115710536
:1005C00081F0DB010D900020E9F7AD0141505109A8
:1005D000461B570BDC01ED91FC910280F381E02D6D
:1005E000099480E090E008950C94DE02DC01ED9126
:1005F000FC910190F081E02D09940F931F93CF930C
:10060000DF93EC016DE00E94F6028C016AE0CE01FE
:100610000E94F602800F911FDF91CF911F910F91E1
:1006200008950F931F93CF93DF93EC010E94DE0296
:100630008C01CE010E94FD02800F911FDF91CF91AE
:100640001F910F9108958F929F92AF92BF92CF9278
:10065000DF92EF92FF920F931F93CF93DF93CDB76B
:10066000DEB7A1970FB6F894DEBF0FBECDBF7C01F9
:10067000C42EE52FCB01D22E19A221E02D1510F0AA
:100680002AE0D22E8E010F5D1F4F8D2C912CA12CB4
:10069000B12C6C2D7E2FA50194010E9478048C2D25
:1006A000D29E80191124015011098A3014F4805D02
:1006B00001C0895CF8018083211531054105510590
:1006C00021F0C22EE32FCA01E4CFB801C7010E9476
:1006D000DE02A1960FB6F894DEBF0FBECDBFDF914C
:1006E000CF911F910F91FF90EF90DF90CF90BF902F
:1006F000AF909F908F900895CF92DF92EF92FF92EC
:100700000F931F93CF93DF93EC016A017B012115B7
:10071000310579F4E881F9810190F081E02D642FB1
:10072000DF91CF911F910F91FF90EF90DF90CF90CD
:1007300009942A303105E9F477FF1AC06DE20E946E
:10074000F6028C0144275527BA014C195D096E0940
:100750007F092AE0CE010E942303800F911FDF91C1
:10076000CF911F910F91FF90EF90DF90CF90089560
:100770002AE0B701A601CE01DF91CF911F910F9121
:10078000FF90EF90DF90CF900C9423039A01AB0180
:10079000662757FD6095762F0C947C030F931F936B
:1007A000CF93DF93EC019A01AB01662757FD60956B
:1007B000762F0E947C038C01CE010E94FD02800FE7
:1007C000911FDF91CF911F910F9108950E943D04D9
:1007D0000E945F00C9E9D1E00E9473002097E1F315
:1007E0000E949901F9CF1F920F920FB60F92112418
:1007F0002F933F938F939F93AF93BF938091F90172
:100800009091FA01A091FB01B091FC013091F801A7
:1008100023E0230F2D3720F40196A11DB11D05C043
:1008200026E8230F0296A11DB11D2093F8018093A5
:10083000F9019093FA01A093FB01B093FC01809120
:10084000FD019091FE01A091FF01B091000201967F
:10085000A11DB11D8093FD019093FE01A093FF01A6
:10086000B0930002BF91AF919F918F913F912F91D3
:100870000F900FBE0F901F901895789484B58260EA
:1008800084BD84B5816084BD85B5826085BD85B534
:10089000816085BDEEE6F0E0808181608083E1E8E3
:1008A000F0E010828081826080838081816080831B
:1008B000E0E8F0E0808181608083E1EBF0E080811E
:1008C00084608083E0EBF0E0808181608083EAE7F0
:1008D000F0E0808184608083808182608083808179
:1008E000816080838081806880831092C100089538
:1008F000A1E21A2EAA1BBB1BFD010DC0AA1FBB1F24
:10090000EE1FFF1FA217B307E407F50720F0A21B95
:10091000B30BE40BF50B661F771F881F991F1A9402
:1009200069F760957095809590959B01AC01BD012C
:10093000CF010895EE0FFF1F0590F491E02D09946B
:04094000F894FFCF59
:1009440021004153434949205461626C65207E2053
:10095400436861726163746572204D6170002C207C
:100964006465633A20002C206865783A20002C20C6
:100974006F63743A20002C2062696E3A20000000F4
:0E09840000002101B602CD00F600DD001601D4
:00000001FF
